:020000040800F2
:10000000F00800202D0200081F170008350B00081B
:100010001B17000879090008071E000800000000EF
:10002000000000000000000000000000BD180008F3
:100030007D09000800000000A5170008D11900087C
:10004000470200084702000847020008470200086C
:10005000470200084702000847020008470200085C
:10006000470200084702000847020008470200084C
:10007000470200084702000847020008470200083C
:10008000470200084702000847020008470200082C
:10009000470200084702000847020008470200081C
:1000A000470200084702000847020008470200080C
:1000B0004702000847020008351A000847020008F6
:1000C00047020008470200084702000847020008EC
:1000D00047020008E51B0008470200084702000825
:1000E00047020008470200084702000847020008CC
:1000F00047020008470200084702000847020008BC
:1001000047020008470200084702000847020008AB
:10011000470200084702000847020008470200089B
:10012000470200084702000847020008470200088B
:1001300000F002F800F06BF80AA090E8000C82448E
:100140008344AAF10107DA4501D100F060F8AFF26B
:10015000090EBAE80F0013F0010F18BFFB1A43F0A5
:100160000103184710A7000030A700000A444FF011
:10017000000C10F8013B13F0070408BF10F8014B06
:100180001D1108BF10F8015B641E05D010F8016B4B
:10019000641E01F8016BF9D113F0080F1EBF10F8AF
:1001A000014BAD1C0C1B09D16D1E58BF01F801CBD2
:1001B000FAD505E014F8016B01F8016B6D1EF9D555
:1001C0009142D6D37047000000230024002500266A
:1001D000103A28BF78C1FBD8520728BF30C148BFAA
:1001E0000B607047642900F0C380752900F0C0805F
:1001F000782900F0F980632900F00383732900F067
:100200000883002070471FB51FBD10B510BD00F05A
:1002100085FB1146FFF7F7FF03F014FC00F0A3FB8A
:1002200003B4FFF7F2FF03BC01F073FE09488047F7
:1002300009480047FEE7FEE7FEE7FEE7FEE7FEE7C8
:10024000FEE7FEE7FEE7FEE704480549054A064BE0
:1002500070470000D519000831010008F0020020A5
:10026000F0080020F0040020F0040020704710B5D2
:100270004C1084EA530404D54042C1F1000138BF58
:10028000491E1B4204D55242C3F1000338BF5B1E16
:1002900000F0D2F914F0804F04D04042C1F10001C7
:1002A00038BF491E14F0004F04D05242C3F100037E
:1002B00038BF5B1E10BD00000FB4044910B503AA7F
:1002C000029800F0ABFA10BC5DF814FB500000205F
:1002D00070B5044685690068C10601D5302600E086
:1002E0002026C00707D070BDD4E9012130469047D1
:1002F000206A401C20626D1EF6D570BD70B50446A4
:1003000085690078C00707D170BDD4E9012120209C
:100310009047206A401C20626D1EF6D570BD70B5F6
:100320000C460546012A05D02878800600D5EA69E2
:10033000002302E0012305E05B1C934202D2E05C53
:100340000028F9D1A869E618C01AA861286A1844DB
:1003500028622846FFF7BCFF04E0D5E9012114F824
:10036000010B9047B442F8D32846FFF7C7FF70BD92
:100370002DE9F0410646002410687529314616A57E
:1003800010D0AFF30080002802DA404213A507E046
:1003900031688A0701D512A502E0490704D511A5E5
:1003A000012401E0AFF3008000210A2206F12407B6
:1003B00009E0B0FBF2FCB0FBF2F302FB1C003030B2
:1003C00078541846491C0028F3D123462A46304663
:1003D000BDE8F04100F0B2B9000000002D000000BF
:1003E0002B0000002000000070B504460D46214699
:1003F0001068AFF300802188090502D50F4A7A44BE
:1004000002E00E4A7A440E32002104F1240305E092
:1004100000F00F060009965D5E54491C0028F7D1D4
:1004200020780023000704D5702D02D009B10223E3
:1004300011322046BDE8704000F080B902A20000F1
:100440002DE9F05F894604464FF0000ADFF874B1E9
:10045000FB44C0F820A02046E1688847002874D0FB
:10046000252806D0D4E901219047206A401C20624B
:10047000F1E700265F462046E168884720280546C8
:1004800007DB312D05D2781910F8200C08B106438E
:10049000F1E7B00701D526F00406C4F81CA0002738
:1004A000C4F818A02A2D09D0284601F02BFD38B336
:1004B00004EB8708303DC8F8185019E059F8041BC0
:1004C000204604EB87029161E1688847012F0546C9
:1004D00018D1E069002820DA26F020061DE0D8F8BF
:1004E000180000EB800005EB40003038C8F8180019
:1004F0002046E1688847054601F004FD0028EED15A
:10050000012F0AD02E2D08D12046E16888477F1C94
:100510000546022F46F02006C4DBA069002803DA56
:10052000404246F00106A061F00701D026F0100617
:100530006C2D0BD0682D09D04C2D39D06A2D35D0BB
:10054000742D35D07A2D33D016E038E0E1682F468F
:1005500020468847B842054609D16C2F26D04FF473
:100560008060E168064320468847054604E06C2F1A
:100570001AD04FF4807006430DB3A5F1410019283D
:1005800002D8203546F400664A46294620462660B1
:100590004E46FFF727FE80B101280BD0F61D26F04E
:1005A000070000F1080956E74020E4E78020D8E77B
:1005B0000020D6E706F104094DE7284652E7206AF5
:1005C000BDE8F09FD8A1000040EA010310B59B07E9
:1005D0000FD1042A0DD310C808C9121F9C42F8D0AD
:1005E00020BA19BA884201D9012010BD4FF0FF305E
:1005F00010BD1AB1D30703D0521C07E0002010BD74
:1006000010F8013B11F8014B1B1B07D110F8013BFF
:1006100011F8014B1B1B01D1921EF1D1184610BDE0
:1006200002F0FF0343EA032242EA024200F00AB961
:10063000704770477047704753EA020C00F06980BA
:100640002DE9F04B4FF00006002B1FBFB3FA83F5E6
:1006500003FA05F424FA05F65E4012BF1643B2FA17
:1006600082F502FA05F4C5F120051EBF22FA05FC49
:1006700044EA0C04203556EA044C4FEA144418BFEF
:10068000641C4FF000084FF00009904271EB030C1E
:1006900039D3002919BFB1FA81F701FA07F6B0FA88
:1006A00080F700FA07F6C7F120071EBF20FA07FC03
:1006B00046EA0C062037B6FBF4FCA7EB0507103F13
:1006C00007F01F0BCBF120060CFA0BFB2CFA06F6F9
:1006D00044BFB3460026202FA4BF5E464FF0000B58
:1006E0005BEA060C08BF4FF0010B19EB0B09ABFBE3
:1006F000027C48EB0608C01B06FB02CC0BFB03CCBC
:1007000071EB0C01C1E70B46024641464846BDE885
:10071000F08B13B54FF000004FF00001AFF30080F5
:10072000BDE81C40704710B500F0ACF8006810BD83
:1007300010B5044600F0A6F8046010BD2DE9F0479E
:100740000D4699469246044600F124080168880641
:1007500004D5E06921F01001216000E00120A842E9
:1007600001DD471B00E00027A1697A1902EB0900AF
:10077000081AA0612078C00602D42046FFF7A8FD21
:10078000002608E0D4E901211AF806009047206A03
:10079000401C761C20624E45F4DB2078C0060AD54A
:1007A0002046FFF795FD06E0D4E90121302090476F
:1007B000206A401C2062381EA7F10107F4DC07E024
:1007C000D4E9012118F805009047206A401C2062F6
:1007D000281EA5F10105F3DC2046FFF78FFD2078E8
:1007E000000602D50220BDE8F0870120FBE710B526
:1007F000436913B1AFF3008001E0FFF790FD0120E2
:1008000010BD127800F124010A7000224A70012202
:10081000EDE711684FF0FF32E9E70000074B70B5D4
:100820000D467B4400F037F80446284600F046F8B1
:1008300010B14FF0FF3070BD204670BDBB2A0000E4
:100840004FF000020429C0F0128010F0030C00F0F9
:100850003B80CCF1040CBCF1020F18BF00F8012B57
:10086000A8BF20F8022BA1EB0C0100F02DB85FEA25
:10087000C17C24BF00F8012B00F8012B48BF00F811
:10088000012B7047004870478C02002001694A1C08
:1008900002610878704700B58FB0CDE901310021C1
:1008A000059105497944CDE9031011466846FFF7E3
:1008B000C7FD0FB000BD0000E5FFFFFF007B00F0AB
:1008C000800070474FF0000200B5134694469646EC
:1008D000203922BFA0E80C50A0E80C50B1F1200153
:1008E000BFF4F7AF090728BFA0E80C5048BF0CC001
:1008F0005DF804EB890028BF40F8042B08BF70475F
:1009000048BF20F8022B11F0804F18BF00F8012BD0
:1009100070470000004870478C0200207546FFF7C2
:10092000F9FFAE4605006946534620F007008546AC
:1009300018B020B5FFF788FCBDE820404FF0000656
:100940004FF000074FF000084FF0000B21F00701B7
:10095000AC46ACE8C009ACE8C009ACE8C009ACE8FA
:10096000C0098D46704710B50446AFF3008020469D
:10097000BDE81040FFF754BC00BFFEE770472DE90B
:10098000F041024600250026002000230024002715
:1009900091F803C00CF00F0591F803C00CF0100C97
:1009A000BCF1000F03D091F802C04CEA050591F8A4
:1009B00000C0BCF1000F31D0146800202BE04FF0D4
:1009C000010C0CFA00F3B1F800C00CEA03069E42D9
:1009D00020D183004FF00F0C0CFA03F7BC4305FA4B
:1009E00003FC4CEA040491F803C0BCF1280F06D1C3
:1009F0004FF0010C0CFA00FCC2F814C00AE091F8A8
:100A000003C0BCF1480F05D14FF0010C0CFA00FCFB
:100A1000C2F810C0401C0828D1D31460B1F800C03F
:100A2000BCF1FF0F34DD546800202EE000F1080C0B
:100A30004FF0010808FA0CF3B1F800C00CEA030605
:100A40009E4221D183004FF00F0C0CFA03F7BC43F8
:100A500005FA03FC4CEA040491F803C0BCF1280F2A
:100A600005D100F1080C08FA0CF8C2F8148091F8CE
:100A700003C0BCF1480F07D100F1080C4FF001088A
:100A800008FA0CF8C2F81080401C0828CED3546035
:100A9000BDE8F081F0B50A460023002400210025BE
:100AA00000F00046B6F1004F02D11D4EF16901E0A1
:100AB0001B4E7168C0F3034583B200F44016B6F5CF
:100AC000401F08D121F07061154E766826F07066DF
:100AD000134F7E6012E000F48016B6F5801F06D139
:100AE000032606FA05F4A14341F0706106E0460DC5
:100AF000360103FA06F6B14341F0706122B1460DAA
:100B0000360103FA06F6314300F00046B6F1004F15
:100B100002D1034EF16101E0014E7160F0BD0000B1
:100B2000000001400146886880B27047416170470B
:100B30000161704700BFFEE72DE9F04104460D4614
:100B400016461F462A2000F061FAA11C88B200F068
:100B50004EFAB11C88B200F04AFA2B2000F056FA87
:100B6000E91C88B200F043FAF91C88B200F03FFAA1
:100B70002C2000F04BFABDE8F08170B504460D461C
:100B800016462B46224629462046FFF7D5FF30461B
:100B900000F02DFA70BD2DE9F04706460F461446C9
:100BA0001D46DDF820A0681E83B2601E82B2394661
:100BB0003046FFF7C1FFB8460EE0B14606E05046AA
:100BC00000F015FA09F101001FFA80F9A145F6DBE2
:100BD00008F101001FFA80F8A845EEDBBDE8F087B8
:100BE00008B50121082000F0EFFD4FF47C70ADF84E
:100BF000000010208DF8030003208DF802006946E4
:100C00000448FFF7BCFE4FF47C710248FFF790FFE9
:100C100008BD0000000C014010B5FFF7E1FF4021C6
:100C20007B48FFF783FF642001F034FD40217848C2
:100C3000FFF77EFF642001F02DFD4FF40071744832
:100C4000FFF776FF642001F025FD112000F0DEF9AA
:100C5000782001F01FFDB12000F0D8F9022000F04B
:100C6000CFF9352000F0CCF9362000F0C9F9B220D8
:100C700000F0CCF9022000F0C3F9352000F0C0F9F3
:100C8000362000F0BDF9B32000F0C0F9022000F0DA
:100C9000B7F9352000F0B4F9362000F0B1F90220A0
:100CA00000F0AEF9352000F0ABF9362000F0A8F9DD
:100CB000B42000F0ABF9032000F0A2F9C02000F04E
:100CC000A5F9A22000F09CF9022000F099F98420F7
:100CD00000F096F9C12000F099F9C52000F090F9D4
:100CE000C22000F093F90D2000F08AF9002000F0F6
:100CF00087F9C32000F08AF98D2000F081F92A20BD
:100D000000F07EF9C42000F081F98D2000F078F920
:100D1000EE2000F075F9C52000F078F90A2000F007
:100D20006FF9362000F072F9C82000F069F9E02070
:100D300000F06CF9122000F063F91C2000F060F95B
:100D4000102000F05DF9182000F05AF9332000F06F
:100D500057F92C2000F054F9252000F051F92820F3
:100D600000F04EF9282000F04BF9272000F048F958
:100D70002F2000F045F93C2000F042F9002000F05F
:100D80003FF9032000F03CF9032000F039F910206E
:100D900000F036F9E12000F039F9122000F030F9C6
:100DA0001C2000F02DF9102000F02AF9182000F086
:100DB00027F92D2000F024F9282000F021F9232024
:100DC00000F01EF9282000F01BF9282000F018F987
:100DD000262000F015F92F2000F012F93B2000F03A
:100DE0000FF9002000F00CF9032000F009F90320AE
:100DF00000F006F9102000F003F93A2000F006F99F
:100E0000052000F0FDF8292000F000F910BD0000D9
:100E1000000C01402DE9FF4F83B005468A46174676
:100E2000119CAB46204604EBD071C1F34706304617
:100E3000F11706EB5171C910614389B20191A7F115
:100E40002000C7B20AEB0400401E83B2A819401E5E
:100E500082B251462846FFF76FFE4FF000094AE084
:100E6000102C06D1264800EB071010F8090002905C
:100E70000BE0202C06D1234800EB871010F8090066
:100E8000029002E007B0BDE8F08F4FF000082AE0C2
:100E9000129868B9012000FA08F00299084018B1C8
:100EA000069800F0A4F81AE0109800F0A0F816E0F8
:100EB000012000FA08F00299084020B15146284666
:100EC000069AFFF75AFE681C85B2A5EB0B00B042EC
:100ED00005D15D460AF101001FFA80FA06E008F12B
:100EE000010000F0FF08B8F1080FD1DB00BF09F1E5
:100EF00001001FFA80F901988145B1DB00BFC1E70D
:100F00009E8300088E8900082DE9FF4F85B00746B3
:100F100090461C46DDE91396304606EBD071C1F3CE
:100F2000470B2149404606F02BFA039006F0A8F93A
:100F300080B20490002531E0601B401EC1B20A203F
:100F400004F0ECF80499B1FBF0F00A21B0FBF1F2E7
:100F500001FB120AA01EA84210D10020A11E01FB15
:100F60000B71CDE90096029088B22E22129B069951
:100F7000FFF750FF681CC5B2601CC4B200200AF124
:100F80003001CAB205FB0B71CDE90096029088B220
:100F9000129B0699FFF73EFF681CC5B2A542CBDB4A
:100FA00009B0BDE8F08F00000000C8422DE9FE4FF7
:100FB00006460F4614469846DDE90D5ADDF8309096
:100FC00010E0CDE9015ACDF8009022784346394629
:100FD0003046FFF71FFF284605EBD07106EB610195
:100FE0008EB2641C20780028EBD1BDE8FE8F10B5CE
:100FF0000446201200F01AF8E0B200F017F810BD15
:1010000010B50446204600F011F810BD10B5044696
:1010100080210548FFF78AFD204600F007F880216F
:101020000148FFF785FD10BD000C014070B5044676
:101030004FF480711248FFF779FD002517E0102169
:101040000F48FFF773FD04F0800020B120210C4809
:10105000FFF76EFD03E020210948FFF767FD10212F
:101060000748FFF765FD6006040E681CC5B2082D31
:10107000E5DB4FF480710248FFF75AFD70BD0000B8
:10108000000C014008B501210C2000F09DFB302030
:10109000ADF8000010208DF8030003208DF8020049
:1010A00069460A48FFF76BFC30210848FFF740FD0E
:1010B0004FF48070ADF8000069460548FFF75FFC0B
:1010C0004FF480710248FFF733FD08BD000C01406A
:1010D000000801402DE9FC4104460D4616466B46CA
:1010E00006223B21682000F042FA0746BFB99DF86E
:1010F00001009DF8001040EA012000B220809DF818
:1011000003009DF8021040EA012000B228809DF8FB
:1011100005009DF8041040EA012000B230803846F6
:10112000BDE8FC812DE9FC4104460D4616466B46A0
:1011300006224321682000F01AFA0746BFB99DF83D
:1011400001009DF8001040EA012000B220809DF8C7
:1011500003009DF8021040EA012000B228809DF8AB
:1011600005009DF8041040EA012000B230803846A6
:10117000BDE8FC812DE9F84F6B4602224121682031
:1011800000F0F5F99DF801009DF8001040EA0120FB
:101190000FFA80FA504605F0D5FB804600220B4B33
:1011A00005F03CFA06460A4A0A4B05F07BF904466C
:1011B00005F046F983460849584606F0E1F804462A
:1011C00006F042F800B2BDE8F88F0000004075401C
:1011D000A4703D0AD74342400000C84210B5002029
:1011E0000E4908600E48006820F470400C49086001
:1011F0000846006840F44050086000200949C1F8E2
:10120000AC0100F011F801200449086000F00CF86E
:1012100000200449C1F8A80110BD0000A8812142A6
:10122000040C01400080214210B5022001F058FA60
:1012300010BD000008B50121082000F0C5FA4FF4E8
:101240004060ADF8000010208DF8030003208DF8F9
:10125000020069460448FFF792FB4FF440610248E0
:10126000FFF766FC08BD0000000C014010B500202F
:101270000E4908600E48006820F470400C49086070
:101280000846006840F44050086001200949C1F850
:10129000AC01FFF7C9FF012004490860FFF7C4FF54
:1012A00000200449C1F8A80110BD0000A881214216
:1012B000040C01400080214270B505460024164808
:1012C000006820F47040144908600846006840F443
:1012D00000400860002614E0002010490860FFF775
:1012E000A3FF01200E49C1F8A8016006040E0B48B7
:1012F0007C38006808B1601CC4B2FFF795FF701C11
:10130000C6B2082EE8DB15B9FFF7B0FF01E0FFF722
:1013100065FF204670BD0000040C0140A8812142F9
:101320000080214270B504461248006820F47040E5
:10133000104908600846006840F4405008600020EA
:101340000D490860002512E0E0090B49091D0860FD
:101350006006040E01200949C1F8A801FFF764FFE7
:10136000002005490860FFF75FFF681CC5B2082D23
:10137000EADB70BD040C0140A881214200802142BB
:1013800010B50E48006820F470400C49086008460B
:10139000006840F44050086001200949086009498C
:1013A000C1F8A801FFF740FF002005490860FFF7DA
:1013B0003BFF00200349C1F8A80110BD040C014007
:1013C000AC8121420080214210B50E48006820F413
:1013D00070400C4908600846006840F440500860BE
:1013E0000020094908600949C1F8AC01FFF71CFF5A
:1013F0000120054908600549C1F8AC01FFF714FF59
:1014000010BD0000040C0140A8812142008021424F
:1014100010B500241448006820F470401249086098
:101420000846006840F40040086001200F49086049
:10143000FFF7FAFE01200E49C1F8A801FFF7F4FEFC
:1014400007E0601CC4B2FA2C03DDFFF7BDFF0120EA
:1014500010BD0648803800680028F2D10349091FF2
:10146000086000BFF4E70000040C0140AC81214299
:101470000080214238B50121084600F0A5F901217C
:10148000102000F0A1F90120ADF8000010208DF827
:10149000030003208DF8020069462348FFF76FFA26
:1014A00001212248FFF7F6FA002021490860FFF7E2
:1014B000C1FE80216B2000F0DEF8642001F0EAF824
:1014C00000216B2000F0D7F8032000F092F80020F4
:1014D00000F087F8322000F0B1F80021382000F049
:1014E000CAF800216A2000F0C6F80021232000F08D
:1014F000C2F88021372000F0BEF8752000F01AF8FD
:101500000446682C0BD101216B2000F0B4F80021B7
:101510006C2000F0B0F8322000F090F801E00120DB
:1015200038BD0020FCE70000001001400002300040
:10153000BC01214270B50446FFF722FFD020FFF71F
:10154000F1FEFFF765FF2046FFF7ECFEFFF760FFB7
:10155000FFF716FFD120FFF7E5FEFFF759FF002048
:10156000FFF7AAFE0546FFF72FFF284670BD2DE9BD
:10157000F04106460F4614461D46FFF701FF0021C5
:1015800041EA4601C8B2FFF7CDFEFFF741FF20B1A7
:10159000FFF71AFF0120BDE8F0813846FFF7C2FED1
:1015A000FFF736FFFFF7ECFE012101EB4601C8B261
:1015B000FFF7B8FEFFF72CFF0DE0012C04D100204F
:1015C000FFF77AFE287003E00120FFF775FE287010
:1015D000601EC4B26D1C002CEFD1FFF7F5FE002099
:1015E000D9E710B50446E006010E1C2000F043F8D0
:1015F00010BD10B50446E006010E1B2000F03BF8BC
:1016000010BD70B504460025BC2C01DB012510E09F
:10161000622C01DB02250CE02A2C01DB032508E00B
:10162000142C01DB042504E00A2C01DB052500E075
:10163000062529461A2000F01EF870BD70B5044634
:10164000B4F57A7F01DD4FF47A74042C00DA0424B7
:101650004FF47A7090FBF4F0401EC5B22946192071
:1016600000F009F80546264604EBD671C1F34F0099
:10167000FFF7C7FF70BD70B505460C46FFF780FE4B
:10168000D020FFF74FFEFFF7C3FE18B1FFF79CFE17
:10169000012070BD2846FFF745FEFFF7B9FE204642
:1016A000FFF740FEFFF7B4FE18B1FFF78DFE0120F3
:1016B000EFE7FFF789FE0020EBE72DE9F041054653
:1016C0000E4617469846FFF75BFE002141EA4501AA
:1016D000C8B2FFF727FEFFF79BFE20B1FFF774FEAD
:1016E0000120BDE8F0813046FFF71CFEFFF790FEB9
:1016F00000240CE018F80400FFF714FEFFF788FE42
:1017000018B1FFF761FE0120EBE7601CC4B2BC42D8
:10171000F0DBFFF759FE0020E3E700BFFEE770476C
:1017200070B5002100230F22C47804B3154C24683F
:1017300004F4E064C4F5E064210AC1F10403CA4082
:10174000447804FA03F184781440214309010E4CD3
:101750000678A155047804F01F050124AC400578F3
:101760006D11AD0005F1E025C5F8004109E00478F0
:1017700004F01F050124AC40044D0678761145F8AD
:10178000264070BD0CED00E000E400E080E100E0E8
:1017900002490143024A1160704700000000FA0547
:1017A0000CED00E07047000029B1064AD2690243FF
:1017B000044BDA6104E0034AD2698243014BDA61E7
:1017C000704700000010024029B1064A92690243A6
:1017D000044B9A6104E0034A92698243014B9A6187
:1017E000704700000010024030B5002100220024A4
:1017F00000232D4D6D6805F00C0121B1042905D0A1
:10180000082923D105E0294D056022E0274D056018
:101810001FE0254D6D6805F47012234D6D6805F4C9
:101820008034022505EB92421CB9214D55430560D9
:101830000BE01D4D6D6805F400351DB11C4D554381
:10184000056002E0194D5543056002E0174D056043
:1018500000BF00BF144D6D6805F0F0010909154D7A
:101860006B5C0568DD4045600F4D6D6805F4E06117
:10187000090A104D6B5C4568DD4085600A4D6D6856
:1018800005F46051C90A0B4D6B5C4568DD40C560CD
:10189000054D6D6805F44041890B074D6B5CC568CB
:1018A000B5FBF3F5056130BD0010024000127A006F
:1018B00000093D005600002066000020704710B56A
:1018C00000F002F810BD00000CB50020019000905F
:1018D0003348006840F480303149086000BF304828
:1018E000006800F4003000900198401C01900098BE
:1018F00018B90198B0F5A06FF1D12948006800F43B
:10190000003010B10120009001E00020009000980C
:10191000012843D12348006840F0100021490860A5
:101920000846006820F0030008600846006840F0A0
:10193000020008601A484068194948600846406833
:1019400048600846406840F4806048600846406847
:1019500020F47C1048600846406840F4E810486075
:101960000846006840F08070086000BF0C480068BE
:1019700000F000700028F9D00948406820F003000A
:10198000074948600846406840F00200486000BFD0
:101990000348406800F00C000828F9D10CBD000095
:1019A0000010024000200240042808D14FF0E0213E
:1019B000096941F004014FF0E022116107E04FF0A6
:1019C000E021096921F004014FF0E0221161704724
:1019D0007047000010B51348006840F0010011493D
:1019E000086008464068104908400E4948600846AB
:1019F00000680E4908400B4908600846006820F45A
:101A0000802008600846406820F4FE0048604FF4DB
:101A10001F008860FFF753FF4FF000600449086023
:101A200010BD0000001002400000FFF8FFFFF6FEAE
:101A300008ED00E010B501210A4800F035F8012852
:101A40000AD10949086980470021064800F048F892
:101A50006421044800F042F80121024800F009F82E
:101A600010BD000000080040C0000020CA430282F0
:101A70007047CA430282704721B1028842F00102D6
:101A8000028004E002884FF6FE731A40028070471D
:101A90000146888C704702460020138A0B400BB128
:101AA000012000E00020704730B5024600200023EE
:101AB0000024158A05EA0103958905EA010413B19A
:101AC0000CB1012000E0002030BD1AB183890B4326
:101AD000838102E083898B438381704781857047CE
:101AE00081847047002202881D4B98420ED01D4B06
:101AF00098420BD0B0F1804F08D01B4B984205D0D4
:101B00001A4B984202D01A4B984204D14FF68F7369
:101B10001A404B881A43174B984207D0164B9842ED
:101B200004D04FF6FF431A40CB881A4302808B88BB
:101B300083850B8803850A4B98420BD0094B98424A
:101B400008D00E4B984205D00D4B984202D00D4B59
:101B5000984201D10B7A03860123838270470000EB
:101B6000002C014000340140000400400008004007
:101B7000000C0040001000400014004000400140F4
:101B800000440140004801407FB505460C46012154
:101B90000420FFF709FEADF80850ADF8044000201E
:101BA000ADF80A00ADF8060001A90D48FFF79AFF4D
:101BB000012241210A48FFF788FF1E208DF800000E
:101BC00003208DF801008DF8020001208DF803003C
:101BD0006846FFF7A5FD01210148FFF74DFF7FBDD6
:101BE0000008004010B540F225511D4800F04AF8A9
:101BF00010B31B4800F002F9C4B21A48008800F480
:101C00000040C8B91748008800F4804060B10A2C31
:101C100003D000201349088020E01248008840F4D7
:101C200000401049088019E00D2C06D10D480088AD
:101C300040F480400B49088010E00A480088C0F357
:101C40000D0009490C5407480088401C05490880CC
:101C500008460088C72801DD0020088010BD00006C
:101C60000038014054000020C401002021B18289C5
:101C700042F40052828104E082894DF6FF731A40DB
:101C80008281704770B502460024002300250020A1
:101C900040F66A16B14200D100BFC1F3421501F00F
:101CA0001F03012606FA03F3012D02D19689334062
:101CB00006E0022D02D1168A334001E0968A3340B5
:101CC0000C12012606FA04F41688344013B10CB144
:101CD000012000E0002070BDF0B50346002400267E
:101CE0000025002040F66A17B94200D100BF18460F
:101CF000C1F3421401F01F06012707FA06F5012C73
:101D000001D10C3004E0022C01D1103000E014307D
:101D10001AB107682F43076002E00768AF43076006
:101D2000F0BD00002DE9F04786B005460E460024C0
:101D3000A24600BFA1460027B08900B100BF2F46D0
:101D40002C8A4CF6FF700440F08804432C82AC8946
:101D50004EF6F3100440B088318908437189084376
:101D60000443AC81AC8A4FF6FF400440B089044381
:101D7000AC8201A8FFF738FD1F48874202D1DDF889
:101D800010A001E0DDF80CA0A88900F4004040B1EB
:101D90000AEBCA0000EB0A1031684900B0FBF1F809
:101DA00007E00AEBCA0000EB0A1031688900B0FBBB
:101DB000F1F86420B8FBF0F004012009642101FB74
:101DC0001089A88900F4004040B1322000EBC9001E
:101DD000B0FBF1F000F00700044308E0322000EB14
:101DE00009106421B0FBF1F000F00F0004432C81D6
:101DF00006B0BDE8F0870000003801400146888841
:101E0000C0F30800704700BFFEE7490050EAC12058
:101E100018BF04204A0D18BF40F0010040F2FF72C5
:101E2000B2EB515F08BF40F00200012808BF052057
:101E300070472DE9F0414F1E00EBC7010446D1E980
:101E4000000115461E4637F006020DD02A463346DD
:101E500004F090FD7F1E04EBC703D3E9002304F0D8
:101E600021FB37F00602F1D1022F25D0042F13D029
:101E7000062F18BFBDE8F0812A46334604F07AFDEC
:101E8000D4E90A2304F00EFB2A46334604F072FD1F
:101E9000D4E9082304F006FB2A46334604F06AFD21
:101EA000D4E9062304F0FEFA2A46334604F062FD24
:101EB000D4E9042304F0F6FA2A46334604F05AFD26
:101EC000D4E9022304F0EEFA2A46334604F052FD28
:101ED000D4E90023BDE8F04104F0E4BA012205F0A2
:101EE000F4BB04F0DFBA002213461046114604F09A
:101EF00095BB0000024A0020110705F0E6BB000078
:101F000001FDFFFF30380A2801D201207047002070
:101F1000704700BF704700002DE9FE4F06460F4690
:101F20000025684601F0EAF9002442E056F8240052
:101F300057F82410A0EB010ABAF1000F01DB51465B
:101F400001E0CAF10001084605F0BAF983464FF0F6
:101F50008F4105F083F880465DF82400002105F0EC
:101F60003FF916D05DF82410404605F077F8824618
:101F70004FF07E5105F002FB814629F0004A0F48E0
:101F8000416A504605F0C8FA12D20120A04005432C
:101F90000EE00A48C169404605F0BEF905D307487E
:101FA000016A404605F0B8FA02D20120A04005437C
:101FB000641C032CBADB2846BDE8FE8F807700083E
:101FC0002DE9F04D8D4F21F0004A86B005460C46B4
:101FD000BA452ADBAAEB070028430AD08848824585
:101FE00001DC1AD1CDB106B02846BDE8F04DFFF7AF
:101FF00075BF844A844B284604F0BCFC07460E4655
:10200000824A834B2846214604F0B4FC06B03A4687
:102010003346BDE8F04D04F045BA0120FEF788FBD9
:1020200006B0BDE8F04DFFF75EBF7A48824542DA60
:10203000BAF1795F0BDA2846FFF7E7FE042808BFFC
:10204000FFF758FF284606B02146BDE8F08D2A4626
:102050000B46104604F08EFC834602466E480E4640
:102060000B4606217844FFF7E4FE5A46334604F057
:1020700081FC804669488A465A46334604217844A2
:10208000FFF7D7FE5A46334604F074FC00223B4665
:1020900004F008FA02460B464046514604F0BEFAE8
:1020A0002A46234604F066FC06B02A462346BDE8CD
:1020B000F04D04F0F7B9284624F0004100223D46D7
:1020C0003B4604F055FD4FF0FF3205F0FEFA0646A0
:1020D000024653480F460B4606217844FFF7A9FEF7
:1020E00032463B4604F046FCCDE900014D483246FD
:1020F0003B4604217844FFF79CFE32463B4604F001
:1021000039FC00222B4604F0CDF98346029130467B
:10211000394603F0A3F8804643480D46504517DC86
:10212000DDE900015A46029B04F078FA42462B464C
:1021300004F020FC42462B4604F0B4F9012205F0DD
:10214000C4FA304A304B04F005FE304A304B4CE0C4
:102150004FF0000A52460B46404604F0A3F9CDE981
:10216000031052462B461046194604F003FC324633
:102170003B4604F0FDFCDDE9033204F04FFA06466D
:102180000F46DDE900015A46029B04F047FA8346F8
:10219000009101223046394605F097FA194A1A4B48
:1021A00004F0E6FC06460F4601224046294605F0AB
:1021B0008CFA5A46009B04F0DDFB32463B4604F0A5
:1021C000C9FD06460F4601225046294605F07DFA14
:1021D0000E4DDFF858802A46434604F0C9FC3246CB
:1021E0003B4604F0C5FC2A46434604F0C1FC002CE3
:1021F000D8BF81F0004106B0BDE8F08D0000F03F8F
:102200000000F07F075C143326A6913C182D44543F
:10221000FB21F93F0000E03FD8850000EE8500007B
:1022200062850000788500003333EF3FFB21E93FF2
:102230002DE9F84F04460D4621F000400091734906
:10224000814211DC7249884201DC06D12CB1204662
:102250002946BDE8F84FFFF741BE6E48002DCCBFC0
:102260006D496E49BDE8F88F6D49814211DD6D49B8
:102270008142D8BF4FF0FF366DDD20462946FFF77B
:10228000C4FD042808BFFFF735FE20462946BDE8F7
:10229000F88F6549654F25F00045814233DD64497B
:1022A000814219DD002632464FF080432046294600
:1022B00004F0F8F880468A4601222046294605F0B7
:1022C00004FA00223B4604F045FD4246534604F022
:1022D000A5F904460D463EE001260022BA463B46DB
:1022E0002046294604F0DEF880460F460022534679
:1022F0002046294604F02EFD42463B4604F08EF966
:1023000004460D4627E04B4981421BDDDFF828A13A
:102310000226002253462046294604F02BFB0022C9
:102320003B4604F0BFF880460F4600225346204645
:10233000294604F00FFD42463B4604F06FF904467F
:102340000D4608E0032622462B4600203B4904F0B8
:1023500065F904460D4622462B461046194604F000
:1023600009FB8B46824602460B4604F003FB0746F8
:102370000246334888460B4606217844FFF759FD4C
:1023800052465B4604F0F6FA82462E488B463A46A1
:10239000434605217844FFF74CFD3A46434604F096
:1023A000E9FA02460B46002E504659460CDA04F074
:1023B00079F822462B4604F0DDFA01B022462B467E
:1023C000BDE8F04F04F0D4BB04F06CF822462B4675
:1023D00004F0D0FA1C4A7A4402EBC603D3E9002386
:1023E00004F0B8FC22462B4604F0B4FC174A7A44A9
:1023F00002EBC603D3E9002304F0BAFB009A002ADB
:10240000B8BF81F00041BDE8F88F00000000104423
:102410000000F07F182D4454FB21F93FFB21F9BF48
:102420000000DC3F0000203E0000F33F0000F03FD2
:102430000000E63F008003400000F83F0000F0BFCE
:102440007A83000038830000D68200009E8200005C
:102450002DE9F04D9446CCF1000423F000464CEAFF
:102460000404594F46EAD4749A46884621F0004243
:10247000BC4206D8454240EA050442EAD474BC4254
:1024800004D9BDE8F04D6246FFF72BBDAAF14055D7
:10249000A5F17F6555EA0C040BD0022404EAAA7466
:1024A0004A4DDFF82CE144EAD87452EA000B04D01C
:1024B0000CE0BDE8F04DFFF7BBBE002C14BF012CB3
:1024C000BDE8F08D022C30D0032C32D056EA0C0B34
:1024D0000AD0BE4220D1BA4209D126F0804622F06D
:1024E00080423346114617E000291ADB25E0DFF869
:1024F000E4B0FB44002C04BFDBE90001BDE8F08D33
:10250000012C02BFDBE9000181F00041BDE8F08D44
:10251000022C0AD0032C0CD0BA4212D1B8F1000F11
:102520000BDA2A482C49BDE8F08D28462B49BDE836
:10253000F08D28467146BDE8F08D24482849BDE855
:10254000F08D921B12153C2AC4BF204F244E10DC84
:10255000BAF1000FBEBF12F13C0F00273E4608DB68
:10256000624604F05BF821F00041FFF761FE074688
:102570000E4694B1012C08BF86F000460DD0194AD2
:10258000194B022C3846314615D004F0E3FB2A469D
:10259000BDE8F04D114B04F0DDBB00221346384678
:1025A000314604F093F904BF0220FEF7C1F8384623
:1025B0003146BDE8F08D04F0CDFB2A46BDE8F04D74
:1025C000064B04F0D5BA00000000F07F182D4454EB
:1025D000FB2109C032820000FB21F9BFFB21094029
:1025E000FB21F93F075C143326A6A13C2DE9F041FD
:1025F0000446E07800F0C006E07800F03F0560781F
:1026000000F0010098B1EF102846E91705EB517171
:10261000C910A5EBC101491C01F0FF080B48006877
:1026200020B10A48414602683846904700BF6078AA
:1026300000F0080030B10548406818B1B011034AF5
:10264000516888470020BDE8F0810000B4010020F7
:1026500010B56FF00400FFF7A7F90A4800680A49AF
:10266000B0FBF1F0094908700846007800EB400122
:10267000C1EBC0104FF6FF7101EAC00004490880A9
:1026800010BD00000000002000127A004C00002065
:102690004E0000200146114A12884A434FF0E023C1
:1026A0005A6100229A611A46126942F001021A61C7
:1026B00000BF4FF0E022106900F001021AB100F4EF
:1026C0008032002AF5D04FF0E022126922F0010298
:1026D0004FF0E0231A6100229A6170474E000020FB
:1026E0000146114A12784A434FF0E0235A61002212
:1026F0009A611A46126942F001021A6100BF4FF056
:10270000E022106900F001021AB100F48032002AC0
:10271000F5D04FF0E022126922F001024FF0E023E1
:102720001A6100229A6170474C00002038B50446B7
:1027300064B120208DF8000028208DF801003020A1
:102740008DF8020038208DF8030004E0A322042154
:102750006846FDF765FF6A46042140F69E2002F0B8
:1027600093FC02F07DF838BD3EB5044602208DF89A
:102770000000CA208DF80100E3208DF80200092036
:102780008DF803006A460421682002F07DFCA32036
:102790008DF8000004F0400048B1C0208DF8010021
:1027A000C8208DF80200C2208DF8030006E0A320A7
:1027B0008DF801008DF802008DF8030004F4C0705C
:1027C00048B1C4208DF80400CC208DF80500C62047
:1027D0008DF8060006E0A3208DF804008DF80500B2
:1027E0008DF80600A3208DF807008DF808008DF8FD
:1027F00009006A460A2140F6A72002F045FC04F0D1
:10280000030018B120208DF8000002E0D8208DF8D8
:1028100000006A46012140F6B62002F035FC04F0C3
:10282000200018B1012000F0ADF802E0002000F017
:10283000A9F804F4C07008B304F4807060B1B22049
:102840008DF800008B208DF80100B6208DF8020075
:102850009B208DF803000BE0B0208DF80000802055
:102860008DF80100B4208DF8020090208DF803004F
:102870006A46042140F6A22002F006FC04F00100A2
:1028800020B3F8208DF800006A4601214FF40B6058
:1028900002F0FAFBFA21072000F02CFC072000F0E0
:1028A000F3FB012000F013FC642000F0F3FC4FF474
:1028B000FA7000F002FDC821304800F0A3FB282088
:1028C00000F0BCFB0A2000F0CCFB08E0D8208DF81B
:1028D00000006A4601214FF40B6002F0D5FB04F0C2
:1028E000020018B1D9208DF8000002E0D8208DF840
:1028F00000006A46012140F23D7002F0C5FB04F081
:10290000040018B1012000F069F802E0002000F096
:1029100065F804F0100018B10120FFF707FF02E08E
:102920000020FFF703FF44F008001549488101F03B
:1029300097FF00201249887304F0400018B1084640
:10294000807B801D887304F4C07020B10C48807BAC
:10295000801D0B49887304F0140020B10848807B67
:1029600010300749887304F0030020B10448807BCD
:10297000001D0349887300203EBD000009E3CA0220
:10298000B40100203EB504466CB10EA1D1E900208F
:102990008968CDE9002002916A4609214FF49760C9
:1029A00002F072FB3EBD0AA2D2E900109268CDE9A6
:1029B000010200916A4609214FF4976002F064FB1E
:1029C000F0E70000B8AAB38DB4980D355D000000A3
:1029D000B8AAAAAAB088C3C5C700000038B5044683
:1029E00064B1C0208DF80000C2208DF80100C42021
:1029F0008DF80200C6208DF8030004E08B2204212C
:102A00006846FDF70DFE6A46042140F6982002F064
:102A10003BFB01F025FF38BD10B5C8234FF48062A1
:102A2000024940F6F63001F0AFFD10BDA87700086E
:102A30002DE9F04F8DB00746884615469946DDE9E9
:102A4000166B0024002030806B49887B5A4605A90C
:102A500001F066FE18B1601E0DB0BDE8F08F66484B
:102A6000807A00F01400002867D09DF8140000065A
:102A70009DF8151040EA01409DF8161040EA01202B
:102A80009DF81710084328609DF8180000069DF86F
:102A9000191040EA01409DF81A1040EA01209DF803
:102AA0001B10084368609DF81C0000069DF81D106F
:102AB00040EA01409DF81E1040EA01209DF81F10D9
:102AC0000843A8609DF8200000069DF8211040EA08
:102AD00001409DF8221040EA01209DF82310084390
:102AE000E86004F11000C4B228680014019068681E
:102AF00000140290A86800140390E8680014049081
:102B000001984043029901FB0100039901FB010078
:102B1000049901FB010ABAF1706F02DBBAF1885F18
:102B200005DD01F09DFE00203080401E94E7B6F9DF
:102B3000000040F48070308000BF2F48807A00F0A1
:102B4000400020B305A9601C085C095D40EA012033
:102B500000B2A8F8000005A9E01C095C05AAA01CA9
:102B6000105C41EA002000B2A8F8020005A9601D2F
:102B7000095C201D105C41EA002000B2A8F80400A6
:102B8000A01DC4B2B6F9000040F0080030801A4819
:102B9000408900F4C07008B305A9601C085C095D99
:102BA00040EA012000B2388005A9E01C095C05AAB2
:102BB000A01C105C41EA002000B2788005A9601DCD
:102BC000095C201D105C41EA002000B2B880A01D05
:102BD000C4B2B6F9000040F0700030800648807A38
:102BE00000F0030018B105A90819FFF7FFFC4846DB
:102BF00001F05CF900202FE7B401002070B588B027
:102C0000064601A801F014FBBDF804000021C90329
:102C100041EA5045C4034448007A00F0030056F8E6
:102C2000200005904048007A00F0040010B105989B
:102C3000404205903C48007AC0F3C10056F820009D
:102C400006903948007A00F0200010B10698404202
:102C500006903548007AC0F3811056F8200007909E
:102C60003148008900F4807010B107984042079005
:102C70000598C117A0FB042301FB043100FB0510DC
:102C8000810041EA927005900698C117A0FB0423C9
:102C900001FB043100FB0510810041EA92700690AF
:102CA0000798C117A0FB042301FB043100FB0510AA
:102CB000810041EA927007900598000E8DF8080097
:102CC0000598000C8DF809000598000A8DF80A0097
:102CD0000598C0B28DF80B000698000E8DF80C0018
:102CE0000698000C8DF80D000698000A8DF80E006D
:102CF0000698C0B28DF80F000798000E8DF81000EE
:102D00000798000C8DF811000798000A8DF8120042
:102D10000798C0B28DF8130002AA0C214FF4257059
:102D200002F0B2F908B070BDB401002030B585B032
:102D3000044616A207CA02AB07C3C82C03DD4FF036
:102D4000FF3005B030BDC82090FBF4F0401E85B2C6
:102D5000280A8DF80000E8B28DF801006A460221C9
:102D600040F2162002F090F910B14FF0FF30E8E782
:102D700002AA0C2140F6C12002F086F910B14FF0F2
:102D8000FF30DEE7044884810020DAE7FEF2ABC4BE
:102D9000AAF1DFDFBBAFDFDFB40100201FB50446BF
:102DA0004848007A00F0030054F82000019045489C
:102DB000007A00F0040010B10198404201904148AF
:102DC000007AC0F3C10054F8200002903D48007A18
:102DD00000F0200010B10298404202903948007A79
:102DE000C0F3811054F8200003903648008900F4A5
:102DF000807010B10398404203903349019880FBE2
:102E00000101800F40EA810001902F49029880FB68
:102E10000110820042EA917002902B49039880FBD6
:102E20000110820042EA917003900198000E8DF823
:102E300000000198000C8DF801000198000A8DF83F
:102E400002000198C0B28DF803006A4604214FF4D5
:102E5000747002F019F918B14FF0FF3004B010BDD2
:102E60000298000E8DF800000298000C8DF8010009
:102E70000298000A8DF802000298C0B28DF8030093
:102E80006A4604214FF4757002F0FEF810B14FF05D
:102E9000FF30E3E70398000E8DF800000398000C64
:102EA0008DF801000398000A8DF802000398C0B263
:102EB0008DF803006A4604214FF4767002F0E4F8BE
:102EC000CCE70000B401002009E3CA0210B586B0C7
:102ED000044647A00068039046A00068029046A000
:102EE0000068019045A00068009004F0030003A969
:102EF000085C8DF8140003A8C4F3C101405C8DF890
:102F0000150003A8C4F38111405C8DF8160004F08D
:102F1000030002A9085C8DF8100002A8C4F3C101E7
:102F2000405C8DF8110002A8C4F38111405C8DF85B
:102F3000120005AA032140F2264002F0A5F818B1BC
:102F40004FF0FF3006B010BD04AA032140F22A4022
:102F500002F09AF810B14FF0FF30F3E701980590B6
:102F60000098049004F0040058B19DF8140040F05B
:102F700001008DF814009DF8100040F001008DF85C
:102F8000100004F0200058B19DF8150040F0010039
:102F90008DF815009DF8110040F001008DF811002A
:102FA00004F4807058B19DF8160040F001008DF8CF
:102FB00016009DF8120040F001008DF8120005AADD
:102FC00003214FF4886002F05FF810B14FF0FF303A
:102FD000B8E704AA032140F2314002F055F810B1DD
:102FE0004FF0FF30AEE7064804810020AAE700005A
:102FF0004CCD6C000CC92C00365676002646660077
:10300000B4010020F8B505460E464FF47A7095FBE2
:10301000F0F000FB06F4200E8DF80000200C8DF877
:103020000100200A8DF80200E0B28DF803006A4624
:1030300004214FF4AE7002F027F8F8BD38B504460D
:10304000052094FBF0F084B220128DF80000E0B26D
:103050008DF801006A4602214FF4AD7002F014F8B9
:1030600038BD38B50446052094FBF0F084B2201238
:103070008DF80000E0B28DF801006A4602214FF49D
:10308000AC7002F001F838BD38B50446002000905D
:1030900004F0010020B19DF8000040F030000090E5
:1030A00004F0020020B19DF8000040F00C000090F8
:1030B00004F0040020B19DF8000040F003000090EF
:1030C0006A4601214FF4A47001F0DEFF38BD38B527
:1030D0000446012C01DA012402E0042C00DD042462
:1030E000601EC0B200906A46012140F24F1001F00C
:1030F000CBFF38BD2DE9FC4706460F4606F007001A
:1031000010B1B7F5C86F03DD4FF0FF30BDE8FC87A5
:10311000384604F0EDF88146594903F09FFF804698
:10312000684601F05FF89DF80000022806D00428E8
:1031300016D0082826D0102848D135E04FF08D4110
:10314000404604F01DF9814604F09AF884B24D49D6
:10315000404604F015F9814604F092F885B238E053
:103160004FF08C41404604F00BF9814604F088F89A
:1031700084B24549404604F003F9814604F080F8E2
:1031800085B226E04FF08B41404604F0F9F88146C5
:1031900004F076F884B23D49404604F0F1F88146E7
:1031A00004F06EF885B214E04FF08A41404604F016
:1031B000E7F8814604F064F884B23549404604F0EB
:1031C000DFF8814604F05CF885B202E04FF0FF3092
:1031D0009CE700BF20128DF80400E0B28DF80500D6
:1031E00028128DF80600E8B28DF8070006F00100FD
:1031F000A0B101AA02214FF4EA7001F045FF10B11D
:103200004FF0FF3082E70DF1060202214FF4927079
:1032100001F03AFF10B14FF0FF3077E706F00200FF
:10322000A0B101AA02214FF4EC7001F02DFF10B102
:103230004FF0FF306AE70DF1060202214FF494705F
:1032400001F022FF10B14FF0FF305FE706F00400FD
:10325000A0B101AA02214FF4EE7001F015FF10B1E8
:103260004FF0FF3052E70DF1060202214FF4967045
:1032700001F00AFF10B14FF0FF3047E7002045E7AB
:1032800000004843000040460000C04500004045A3
:103290000000C04438B50446052094FBF0F085B228
:1032A00028128DF80000E8B28DF801006A4602216C
:1032B0004FF4EF7001F0E8FE38BD38B50446052044
:1032C00094FBF0F085B228128DF80000E8B28DF87A
:1032D00001006A4602214FF4ED7001F0D5FE38BDC1
:1032E00000BF054A128802F04002002AF9D0C2B29B
:1032F000014B1B1D1A807047003801407CB5054604
:1033000028494968087801AB04220D21FEF72FF9FE
:1033100008B107207CBD9DF80700C0F301109DF89F
:10332000041001F0E00140EAE1008DF800009DF892
:103330000700C0F381009DF8051001F0E00140EAAC
:10334000E1008DF801009DF8070000F003009DF8F2
:10335000061001F0E00140EAE1008DF802000024CF
:103360001CE01DF8040018B9002045F8240013E003
:103370000D4845F8240006E055F824000B4903F0F9
:10338000FFFF45F824001DF80400401EC0B20DF8F0
:1033900004000028F0D100BF601CC4B2032CE0DBA5
:1033A0000020B7E7140000207B14AE3E1D5A843F76
:1033B0002DE9F04F87B005460C46914601208DF867
:1033C000100000208DF81100FE4A1268917CFD4A21
:1033D0005268107804AB0222FEF76FF920B14FF06B
:1033E000FF3007B0BDE8F08FC820FFF753F9002089
:1033F0008DF81000F34A1268D17BF24A52681078B7
:1034000004AB0122FEF759F910B14FF0FF30E8E7A5
:10341000EC4A12685179EB4A5268107804AB0122E9
:10342000FEF74BF910B14FF0FF30DAE7E54A1268CA
:10343000917CE44A5268107804AB0122FEF73DF912
:1034400010B14FF0FF30CCE7DE4A1268D17DDD4A83
:103450005268107804AB0122FEF72FF910B14FF03B
:10346000FF30BEE7D74A12681179D64A5268107801
:1034700004AB0122FEF721F910B14FF0FF30B0E7A5
:103480000C208DF81000CF4A12681179CD4A52688D
:10349000107804AB0122FEF710F910B14FF0FF30A5
:1034A0009FE70F20FFF7F6F8C648806A407A8DF84C
:1034B0001000C44A12689178C24A5268107804AB6E
:1034C0000122FEF7FAF810B14FF0FF3089E7BD484E
:1034D000806A007A8DF81000BA4A12685178B94AA9
:1034E0005268107804AB0122FEF7E7F810B14FF0F4
:1034F000FF3076E7B9F1000F07D0B248806A807AD2
:1035000040F0E0008DF8100004E0AE48806A807A58
:103510008DF81000AB4A12689179AA4A5268107867
:1035200004AB0122FEF7C9F810B14FF0FF3058E7A5
:10353000B9F1000F07D0A348806AC07A40F0E000DC
:103540008DF8100003E0A048C07A8DF810009D4A65
:103550001268D1799B4A5268107804AB0122FEF7B9
:10356000ACF810B14FF0FF303BE7B9F1000F02D0DB
:10357000C820FFF78FF840208DF81000914A12689C
:103580001179904A5268107804AB0122FEF795F841
:1035900010B14FF0FF3024E778208DF81000894AF1
:1035A00012685179874A5268107804AB0122FEF7FD
:1035B00084F810B14FF0FF3013E783498889FFF793
:1035C00069F800208DF810007E4A126851797D4A12
:1035D0005268107804AB0122FEF76FF810B14FF07B
:1035E000FF30FEE6774A1268917A764A5268107880
:1035F00004AB0222FDF7BBFF10B14FF0FF30F0E645
:103600009DF811009DF8101040EA012B0C209BFB47
:10361000F0F0C6B20020A86068602860A06060601A
:103620002060824665E0674A1268D17A654A52682E
:10363000107804AB0C22FDF79AFF10B14FF0FF3069
:10364000CFE69DF811009DF8101040EA012000B26D
:10365000ADF808009DF813009DF8121040EA012013
:1036600000B2ADF80A009DF815009DF8141040EA6C
:10367000012000B2ADF80C00BDF908102068084424
:103680002060BDF90A10606808446060BDF90C1044
:10369000A0680844A0609DF817009DF8161040EA45
:1036A000012000B2ADF800009DF819009DF8181037
:1036B00040EA012000B2ADF802009DF81B009DF821
:1036C0001A1040EA012000B2ADF80400BDF9001064
:1036D000286808442860BDF90210686808446860DA
:1036E000BDF90410A8680844A8600AF1010000F0C0
:1036F000FF0AB24597DB3448D0F800C02868C117EC
:10370000090441EA10410704624600233846FCF7E9
:10371000AEFD32460023CDE90201FCF7A8FD28608A
:103720002948D0F800C06868C117090441EA10416F
:103730000704624600233846FCF799FD3246002311
:10374000CDE90201FCF793FD68601F48D0F800C086
:10375000A868C117090441EA104107046246002322
:103760003846FCF784FD32460023CDE90201FCF720
:103770007EFDA8601448D0F804C02068C117090471
:1037800041EA10410704624600233846FCF76FFD0A
:1037900032460023CDE90201FCF769FD20600A48AA
:1037A000D0F804C06068C117090441EA1041070459
:1037B000624600233846FCF75AFD32460023CDE925
:1037C000020103E01400002080770008FCF74FFDA1
:1037D00060601148D0F804C0A068C117090441EA2C
:1037E00010410704624600233846FCF740FD32468C
:1037F0000023CDE90201FCF73AFDA060A068002893
:1038000004DDA068A0F58030A06003E0A06800F5AA
:103810008030A0600020E4E5807700082DE9FC5F9F
:1038200006460F4600253D494968087801AB03224A
:103830000D21FDF79CFE10B10720BDE8FC9F9DF80F
:10384000040000F01F008DF804009DF8050000F052
:103850001F008DF805009DF8060000F01F008DF890
:103860000600002456E056F8240057F82410A0EB78
:10387000010BBBF1000F01DB594601E0CBF1000168
:10388000084603F01DFD4FF08F41009003F0E6FB6A
:10389000814601A8005D68B32149086803F028FD4E
:1038A000834659461F4803F0D9FB804604E01E4971
:1038B000404603F065FD804601A8005D401EC0B291
:1038C00001A908550028F2D14146484603F0C6FB3D
:1038D00083464FF07E5103F051FE82462AF0004BA2
:1038E0000F488169584603F017FE12D20120A0400C
:1038F00005430EE00A480169484603F00DFD05D373
:1039000007484169484603F007FE02D20120A04063
:103910000543641C032CA6DB28468EE71400002018
:103920008077000800B04C4554E3853F10B504464D
:10393000204600F00FF80346E01C00F00BF843EAC5
:10394000C00083B2A01D00F005F843EA801083B2E6
:10395000184610BD014691F90020002A01DD002023
:103960001EE091F90020002A01DA042018E091F904
:103970000120002A01DD012012E091F90120002A36
:1039800001DA05200CE091F90220002A01DD022075
:1039900006E091F90220002A01DA062000E0072063
:1039A0007047000008B501210420FDF70DFFF0204D
:1039B000ADF8000048208DF8030069460148FCF787
:1039C000DEFF08BD0008014008B501210420FDF715
:1039D000FBFEF020ADF8000010208DF8030003205E
:1039E0008DF8020069460248FCF7C9FF08BD0000D7
:1039F0000008014008B501210420FDF7E5FE0F2075
:103A0000ADF8000048208DF8030069460148FCF736
:103A1000B6FF08BD0008014008B501210420FDF7EC
:103A2000D3FE0F20ADF8000010208DF80300032016
:103A30008DF8020069460248FCF7A1FF08BD0000AE
:103A4000000801408CB000244FF4A060FDF7A0FEF8
:103A50004FF4E13001F028FCFEF7FAFDFDF712FB10
:103A6000FDF708FDFDF7D8F800F072F94FF6FF708A
:103A70008C231A46002100900846FDF78CF80020A0
:103A800010214FF6FF724FF47843CDE900210290E8
:103A90009FA20146FDF78AFA002010214FF6FF721F
:103AA00040F2CF13CDE9002102909AA21421FDF734
:103AB0007DFA002010214FF6FF7240F2CF13CDE9BE
:103AC0000021029095A22821FDF770FA0020102114
:103AD0004FF6FF7240F2CF13CDE90021029091A280
:103AE0003C21FDF763FA002010214FF6FF721F23DF
:103AF000CDE9002102908DA25021FDF757FA00BFB9
:103B000000F020FB0028FBD100E100BF09AA0AA9B0
:103B10000BA800F005FA0028F8D106AA07A908A802
:103B2000FDF7D8FA03AA04A905A8FDF7FBFA0021BE
:103B30000A9803F0F1FB14D20020804908600A982B
:103B400080F000400A90002010214FF6FF721F23E2
:103B5000CDE9002102902D2214213220FDF75AF9DF
:103B60000FE0012075490860002010214FF6FF7218
:103B70001F23CDE900210290202214213220FDF7DD
:103B800049F910204FF6FF711F220523CDE90021CE
:103B9000029014213C200A9AFDF7B6F900210B98F7
:103BA00003F0BAFB11D20B9880F000400B9000207C
:103BB00010214FF6FF721F23CDE9002102902D2224
:103BC00028213220FDF726F90CE0002010214FF6C5
:103BD000FF721F23CDE900210290202228213220EC
:103BE000FDF718F910204FF6FF711F220423CDE9CD
:103BF0000021029028213C200B9AFDF785F9002135
:103C0000099803F089FB11D2099880F000400990CF
:103C1000002010214FF6FF721F23CDE900210290F2
:103C20002D223C213220FDF7F5F80CE00020102178
:103C30004FF6FF721F23CDE90021029020223C2184
:103C40003220FDF7E7F810204FF6FF711F22052301
:103C5000CDE9002102903C210846099AFDF754F96C
:103C600048E006AA07A908A8FDF734FA03AA04A9A0
:103C700005A8FDF757FA00210A9803F04DFB14D26E
:103C800000202E4908600A9880F000400A90002029
:103C900010214FF6FF721F23CDE9002102902D2243
:103CA00014213220FDF7B6F80FE001202349086007
:103CB000002010214FF6FF721F23CDE90021029052
:103CC000202214213220FDF7A5F810204FF6FF71B5
:103CD0001F220523CDE90021029014213C200A9ADD
:103CE000FDF712F9412C02D10020154908602A2C59
:103CF00000D103E001F008FA041EB2D100BF214652
:103D000010A0FCF7D9FA6420FEF7C4FCFDE6000021
:103D10004A4C5500726F6C6C3A0000007069746315
:103D2000683A00007961773A0000000048656C6CE1
:103D30006F212C576F726C6421000000A00121429A
:103D4000948121426B657976616CA3BA256300008A
:103D500010B5FFF761FEFFF725FE10BD70B5FFF748
:103D600021FE10214E48FCF7E3FE20214C48FCF7D1
:103D7000DFFE40214A48FCF7DBFE80214848FCF783
:103D8000D7FEFFF749FE01214548FCF7CFFE02218F
:103D90004348FCF7CBFE04214148FCF7C7FE08214D
:103DA0003F48FCF7C3FE3E48FCF7BCFEF02121EA89
:103DB00000061EB900203B49087070BD39480078E4
:103DC00020B90120374908700020F6E7354800780F
:103DD000012859D1022033490870102E06D0202E18
:103DE00006D0402E06D0802E08D105E0002507E041
:103DF000012505E0022503E0032501E00020DCE7C2
:103E000000BFFFF7E1FD10212548FCF78FFE2021C0
:103E10002348FCF78BFE40212148FCF787FE8021D8
:103E20001F48FCF783FEFFF7E5FD01211C48FCF766
:103E30007FFE02211A48FCF77BFE04211848FCF79C
:103E400077FE08211648FCF773FE1548FCF76AFE5A
:103E50000F2121EA0006012E06D0022E06D0042EE4
:103E600006D0082E08D105E0002407E0012405E073
:103E7000022403E0032401E000209EE700BF0A487B
:103E800000EB8400405D98E706480078022801D1E5
:103E9000002092E700200349087000BF8DE7000072
:103EA000000801404A000020F4A500087047000007
:103EB00070B50446002624F00104184890F8240048
:103EC00008B1002070BD1548807A10B94FF0FF305E
:103ED000F8E71248057C807A2040104908740846AB
:103EE000007CA04202D04FF0FF3600E0002614B95B
:103EF0000A48007D18B1012001F068F902E00020B5
:103F000001F064F93CB100F0ABFC20B1034805744A
:103F10004FF0FF30D6E73046D4E700001400002011
:103F20002DE9F04F99B004460D4616464FF07E57E6
:103F30004FF000084FF000094FF0000A12A813A933
:103F400018AB0EAACDE9001014A916A8FEF770FD53
:103F500018B1012019B0BDE8F08FBDF84C0000F495
:103F6000807000287ED00E9803F0AAF983464FF0A7
:103F70009D4103F073F807460F9803F0A1F98346BB
:103F80004FF09D4103F06AF88046109803F098F9CD
:103F900083464FF09D4103F061F88146119803F08C
:103FA0008FF983464FF09D4103F058F88246394619
:103FB0004FF0804003F0E4F94946059003F0E0F942
:103FC000414607904FF0404003F0DAF95146059022
:103FD00003F0D6F90690079902F0D2FF834602F06B
:103FE000A3FFCDE90801FDF7EBFF4FF06632544B1C
:103FF000CDE90A0102F0BEFCCDE90C0102F020FA85
:10400000206049464FF0804003F0BAF949460290DB
:1040100003F0B6F9414604904FF0404003F0B0F988
:104020004146029003F0ACF90390049903F0A6FA1C
:1040300083464FF07E5102F0A3FF059002F074FF1B
:10404000CDE9080139464FF0804003F099F9414627
:10405000039003F095F9494604904FF0804003F037
:104060008FF900E068E05146039003F089F9834638
:10407000049902F085FF059002F056FFCDE9060194
:10408000DDE90823FEF7E4F94FF066322C4BCDE969
:104090000A0102F06FFCCDE90C0102F0D1F92860B1
:1040A0005146504603F06CF949460490484603F0E7
:1040B00067F941460390404603F062F939460190A2
:1040C000384603F05DF90090019902F059FF029023
:1040D000039903F053FA8346049903F04FFA0590CD
:1040E00002F022FFCDE908015146384603F048F9B5
:1040F00049460490404603F043F90390049902F0C6
:104100003FFF4FF08041059003F03AF9834602F0FB
:104110000BFFCDE90601DDE90823FEF799F94FF021
:104120006632074BCDE90A0102F024FCCDE90C010F
:1041300002F086F9306001E002200BE7002009E779
:1041400066A64C4070B50024FDF774F800F024F921
:10415000002840D1782000F02FFFC4B20CB101201C
:1041600070BD7820FFF7A4FEC4B20CB10220F7E7BF
:10417000642000F0D3FEC4B20CB10320F0E7FEF7D8
:104180004BFCC4B20CB10420EAE71548FFF7CEFBA4
:104190000546FEF79BFEC4B20CB10520E0E740F2F5
:1041A0007310FEF7E1FAC4B20CB10620D8E7642020
:1041B000FEF7BCFDC4B20CB10720D1E700F0BCFF94
:1041C00004460CB10820CBE7012000F0A3FDC4B2E7
:1041D0001CB10920C4E70A20C2E70020C0E70000A4
:1041E0004000002001461148407A30B1012807D034
:1041F000022808D003280CD108E0022008700BE048
:104200000420087008E00820087005E010200870FD
:1042100002E04FF0FF30704700BF0448C07C18B187
:1042200008784006000E08700020F4E71400002013
:1042300001461348407A30B1012808D002280AD03C
:10424000032810D10BE04FF4804008800EE041F6C7
:104250009C7008800AE04FF48050088006E04FF41C
:104260000060088002E04FF0FF30704700BF044854
:10427000C07C10B10888401008800020F5E70000DD
:104280001400002001460248007C0870002070479E
:104290001400002001460F48007A30B1012807D0F1
:1042A000022809D003280FD10AE0FA2008800EE086
:1042B0004FF4FA7008800AE04FF47A70088006E044
:1042C0004FF4FA60088002E00020088000BF00BFC1
:1042D000002070471400002001460E48007A30B1DB
:1042E000012807D0022808D003280CD108E00A488A
:1042F00008600BE00948086008E00948086005E02C
:104300000848086002E04FF0FF30704700BF00200F
:10431000FBE700001400002000000343000083427C
:10432000333303423333834101461248C07A0828AD
:1043300017D2DFE800F01704070A0D101318BC208D
:10434000088013E06220088010E02A2008800DE039
:10435000142008800AE00A20088007E00520088071
:1043600004E000BF00BF0020088000BF00BF0020A5
:1043700070470000140000200146064890F8240011
:1043800010B14FF0FF3070470248C089088000200C
:10439000F9E70000140000201CB580208DF8000013
:1043A000654A1268917C644A526810786B46012213
:1043B000FDF783F910B14FF0FF301CBD6420FEF70C
:1043C00069F900208DF800005B4A1268917C5A4A16
:1043D000526810786B460122FDF76FF910B14FF06B
:1043E000FF30EAE7544A1268917D534A52681078C8
:1043F0006B460622FDF7BBF810B14FF0FF30DCE74B
:104400009DF80500C007400F9DF8031001F0010161
:1044100040EA41009DF8011001F0010140EA010469
:1044200094B1012C03D101214348C17431E0022C25
:1044300003D100214048C1742BE021463FA0FBF787
:104440003BFF4FF0FF30B8E73B4A1268D1783A4A59
:10445000526810786B460122FDF789F810B14FF0D1
:10446000FF30AAE79DF8000000F00F042CB93D488A
:10447000FBF722FF4FF0FF309FE7042C06D13AA054
:10448000FBF71AFF01212C48C17402E000212A48E1
:10449000C174FF2128488172FF2027490872FF213B
:1044A00025484172C1724FF6FF71C181FF2101742D
:1044B00081740121017380F82210002180F82310FB
:1044C000417501751630016041608160163880F8D1
:1044D000241080F82510C1844FF4FA6000F062FCCB
:1044E00010B14FF0FF3068E7022000F02BFB10B155
:1044F0004FF0FF3061E72A2000F0CEFC10B14FF002
:10450000FF305AE7322000F009FD10B14FF0FF30C4
:1045100053E70020FFF7CCFC10B14FF0FF304CE721
:10452000002000F051FB10B14FF0FF3045E70020B4
:1045300000F042FD002040E714000020556E737526
:1045400070706F7274656420736F667477617265E2
:104550002070726F64756374207265762025642EF6
:104560000A00000030A7000848616C662073656E81
:104570007369746976697479207061727420666FEA
:10458000756E642E0A0000002DE9F04385B00546E3
:104590000E4690469946294890F8250020B14FF0E4
:1045A000FF3005B0BDE8F08316B94FF0FF30F8E7F3
:1045B000002423E0281B102801DD102000E0281B28
:1045C00087B232193946204600F05EFD10B14FF037
:1045D000FF30E6E701AA3946204600F001F910B1A4
:1045E0004FF0FF30DDE730193A4601A9FBF7ECFF49
:1045F00010B16FF00100D4E7E01984B2AC42D9DB0E
:104600004FEA28208DF8000008F0FF008DF8010027
:104610000A4A1268917E094A526810786B46022253
:10462000FDF74BF810B14FF0FF30BAE70121034816
:1046300080F82510A0F826900020B2E71400002092
:1046400038B50446282C02DD4FF0FF3038BDDCB908
:10465000002000F0EBFB00208DF8000007208DF813
:1046600001002E4A1268917C2C4A526810786B46E1
:104670000222FDF722F810B14FF0FF30E6E70021EB
:10468000264801750020E1E7012000F0CFFB202043
:104690008DF80000012C06D100208DF801000520C6
:1046A00000F0FAFB17E0052C06DC01208DF8010074
:1046B000052000F0F1FB0EE0142C06DC02208DF842
:1046C00001000A2000F0E8FB05E003208DF801005E
:1046D000142000F0E1FB9DF80100072101EB8010A0
:1046E000C0B28DF801000D4A1268917C0B4A5268E5
:1046F00010786B460222FCF7E0FF10B14FF0FF305C
:10470000A4E7082105488172002101730121017588
:104710000020FFF7CDFB002098E7000014000020E8
:10472000F8B504460F4616462C4890F8240010B9F8
:104730004FF0FF30F8BD2948807A10B94FF0FF30B4
:10474000F8E7264A1268917A244A526810786B4634
:104750000222FCF70CFF10B14FF0FF30EAE79DF8A2
:1047600001009DF8001040EA0125A54203DA00206F
:104770003070401EDEE7194840684088B5EB600F96
:1047800017DD164A1268517C144A526810786B463D
:104790000122FCF7ECFE10B14FF0FF30CAE79DF8A4
:1047A000000000F0100020B100F05AF86FF0010096
:1047B000C0E7E2B2094B1B68D97A084B5B681878EE
:1047C0003B46FCF7D4FE10B14FF0FF30B2E795FB4B
:1047D000F4F0401E30700020ACE700001400002010
:1047E000F8B504460D46164616B94FF0FF30F8BD31
:1047F0001A48807A10B94FF0FF30F8E720128DF890
:104800000000E0B28DF801009DF801002844134932
:1048100049684989884202DD4FF0FF30E7E70F4AD7
:104820001268117E0D4A526810786B460222FCF71E
:1048300044FF10B14FF0FF30D9E7EAB2074B1B68D5
:10484000597D064B5B6818783346FCF790FE10B133
:104850004FF0FF30CBE70020C9E700001400002034
:1048600008B57048807A10B94FF0FF3008BD0020BD
:1048700000906C4A1268D17B6A4A526810786B4685
:104880000122FCF71AFF10B14FF0FF30EEE7654A46
:1048900012685179634A526810786B460122FCF71E
:1048A0000CFF10B14FF0FF30E0E75E4A126811795B
:1048B0005C4A526810786B460122FCF7FEFE10B18C
:1048C0004FF0FF30D2E7574890F82400002853D02B
:1048D0000C200090534A12681179524A526810789D
:1048E0006B460122FCF7E9FE10B14FF0FF30BDE747
:1048F0003220FDF7CFFEC02000904A48807A00F0B9
:10490000010020B19DF8000040F020000090454AD1
:1049100012681179434A526810786B460122FCF7FD
:10492000CCFE10B14FF0FF30A0E73E48407C10B104
:104930000220009001E0002000903A4A1268D17BEA
:10494000384A526810786B460122FCF7B6FE10B167
:104950004FF0FF308AE700200090324A1268517908
:10496000304A526810786B460122FCF7A6FE0028F8
:1049700055D04FF0FF3079E704200090294A1268A3
:104980001179284A526810786B460122FCF795FE8F
:1049900010B14FF0FF3069E72248807C20B92148F0
:1049A000807A00F0010010B94020009001E0602002
:1049B00000901C4A126811791A4A526810786B46A6
:1049C0000122FCF77AFE10B14FF0FF304EE73220A3
:1049D000FDF760FE1348407C10B10120009001E01B
:1049E000002000900F4A1268D17B0E4A526810785E
:1049F0006B460122FCF761FE10B14FF0FF3035E746
:104A0000084A12685179074A52681078054B1033EA
:104A10000122FCF752FE10B14FF0FF3026E70020D4
:104A200024E70000140000202DE9F04F8DB08346EC
:104A30000F4602200C90424890F8240020B100203C
:104A400000F068F9012600E0002603A8FFF722FC29
:104A500005A8FFF7C7FB01A8FFF766FC02A8FFF750
:104A60008BFC374890F80AA004A8FFF70BFC002441
:104A700007E0002239465846FEF79AFC00B902E0EA
:104A8000641C022CF5DB00BF022C01D1002528E0BC
:104A9000002407E0012206A909A8FEF789FC00B955
:104AA00002E0641C022CF5DB00BF022C01D10025C2
:104AB00017E006A93846FDF72FFA00F0FF0809A90C
:104AC0005846FEF7ABFE00F0FF090025B9F1000FD4
:104AD00001D145F00105B8F1000F01D145F0020503
:104AE00000BFFF2016490872FF2115484172C172AC
:104AF0004FF6FF71C181FF218172017401210173A1
:104B0000BDF80C0000F04EF99DF8140000F01AF802
:104B1000BDF8040000F0C0F9BDF8080000F0FEF98F
:104B2000504600F049FA9DF81000FFF7C1F916B1A0
:104B3000012000F0EFF828460DB0BDE8F08F00002E
:104B40001400002038B504461E48807A10B94FF092
:104B5000FF3038BD022C06D0042C07D0082C08D01A
:104B6000102C0CD108E0002000900BE008200090F1
:104B700008E01020009005E01820009002E04FF0BF
:104B8000FF30E6E700BF0F48407A9DF80010B0EB19
:104B9000E10F01D10020DCE70A4A1268D179094A05
:104BA000526810786B460122FCF787FD10B14FF078
:104BB000FF30CEE79DF80000C1100248417200208E
:104BC000C7E700001400002038B504465048807C38
:104BD000A04201D1002038BD002C46D04C4A1268BA
:104BE00011794B4A526810786B460122FCF7BFFCE2
:104BF00010B14FF0FF30EEE79DF8000020F02000EC
:104C00000090434A12681179414A526810786B4605
:104C10000122FCF752FD10B14FF0FF30DBE703201B
:104C2000FDF738FD02200090394890F8220020B1AD
:104C30009DF8000040F080000090354890F8230077
:104C400020B19DF8000040F030000090304A12681A
:104C5000117D2F4A526810786B460122FCF72DFD1A
:104C6000002851D04FF0FF30B5E7294A126811797A
:104C7000274A526810786B460122FCF778FC10B185
:104C80004FF0FF30A7E72248807A00F0010028B1FA
:104C90009DF8000040F02000009004E09DF8000026
:104CA00020F0200000901A4A12681179184A5268C0
:104CB00010786B460122FCF700FD10B14FF0FF3079
:104CC00089E70320FDF7E6FC114890F8220010B1B7
:104CD0008020009001E0002000900D4890F8230013
:104CE00020B19DF8000040F030000090084A1268A2
:104CF000117D074A526810786B460122FCF7DDFCF3
:104D000010B14FF0FF3066E701488474002062E77D
:104D10001400002038B50446214890F82400A04231
:104D200001D1002038BD24B31D4890F8250010B9EA
:104D30004FF0FF30F6E7002000F048FA0020FFF7C0
:104D400043FF1749C88C00F0E9F80020009014498F
:104D5000496808786B4601222321FCF7AEFC01214B
:104D60000F4880F82410012000F030FAFFF778FD9A
:104D700013E0002000F02AFA0948007C009008495E
:104D8000496808786B4601222321FCF796FC002134
:104D9000034880F82410FFF763FD0020C2E70000FD
:104DA0001400002038B504461F48807A10B94FF02F
:104DB000FF3038BDFA2C09D0B4F5FA7F09D0B4F52C
:104DC0007A7F09D0B4F5FA6F0CD108E0002000908A
:104DD0000BE00820009008E01020009005E018206B
:104DE000009002E04FF0FF30E3E700BF0E48007A8A
:104DF0009DF80010B0EBE10F01D10020D9E70A4A7D
:104E000012689179084A526810786B460122FCF7C3
:104E100054FC10B14FF0FF30CBE79DF80000C010FC
:104E2000014908720020C4E71400002038B5044688
:104E3000184890F82300A04201D1002038BD14B1D9
:104E40003020009001E0002000901248807C20B1CA
:104E50009DF8000040F0020000900E4890F82200FB
:104E600020B19DF8000040F080000090094A1268CF
:104E7000117D084A526810786B460122FCF71DFC30
:104E800010B14FF0FF30D9E7024880F823400020EE
:104E9000D4E700001400002038B504461E48807A8C
:104EA00010B94FF0FF3038BDBC2C02DB0120009060
:104EB00015E0622C02DB0220009010E02A2C02DBBD
:104EC000032000900BE0142C02DB0420009006E08D
:104ED0000A2C02DB0520009001E0062000900E481D
:104EE000C07A9DF80010884201D10020DBE70A4A11
:104EF00012689178084A526810786B460122FCF7D4
:104F0000DCFB10B14FF0FF30CDE79DF800100248F8
:104F1000C1720020C7E700001400002038B5044625
:104F20002448807A10B94FF0FF3038BD214890F8FE
:104F3000240010B14FF0FF30F7E71E48007D50B15C
:104F400034B1282C04DCE0B2FFF77AFB0020ECE758
:104F50000020FFF775FB042C01DA042404E0B4F50B
:104F60007A7F01DD4FF47A744FF47A7090FBF4F09D
:104F7000401EC0B200900F4A126851780D4A526824
:104F800010786B460122FCF798FB10B14FF0FF3010
:104F9000CBE79DF80000401C4FF47A7191FBF0F0D4
:104FA00081B20448C1810146C9894810FFF774FFE6
:104FB0000020BAE71400002038B5044604F0700061
:104FC00010B10120009005E014B10020009001E034
:104FD000402000902B4A1268917C2A4A526810782F
:104FE0006B460122FCF769FB20B100212548817244
:104FF000481E38BD9DF8000020F040012148017393
:105000000020009004F0400020B99DF8000040F01E
:105010000400009004F0200020B99DF8000040F04A
:105020000200009004F0100020B99DF8000040F04C
:105030000100009004F0080020B99DF8000040F045
:10504000380000900F4A1268D17C0E4A52681078DE
:105050006B460122FCF731FB20B100210948817227
:10506000481EC6E724B1082C02D00020FFF7DEFE60
:1050700004488472002101753220FDF70BFB0020EB
:10508000B7E7000014000020F8B504460D461646A8
:1050900016B94FF0FF30F8BD1A48807A10B94FF0BA
:1050A000FF30F8E720128DF80000E0B28DF8010023
:1050B0009DF801002844134949684989884202DD66
:1050C0004FF0FF30E7E70F4A1268117E0D4A526831
:1050D00010786B460222FCF7F0FA10B14FF0FF3067
:1050E000D9E7EAB2074B1B68597D064B5B68187815
:1050F0003346FCF7E2FA10B14FF0FF30CBE7002067
:10510000C9E700001400002010B5002400BFFEF71E
:1051100025FE0446002CFAD0204610BD10B50246EC
:10512000012000E050430B1EA1F10104E1B2F9D1CE
:1051300010BD01460868704770B588B002A905A87F
:10514000FFF772FC0446032C3ED101A8FFF7C4F818
:10515000059802F0B5F80646019902F011F90546E6
:1051600002F072F80590069802F0AAF80646019936
:1051700002F006F9054602F067F80690079802F07B
:105180009FF80646019902F0FBF8054602F05CF82C
:10519000079005A8FDF702FE6846FFF749F8BDF83D
:1051A0000010029848430290BDF80010039848434D
:1051B0000390BDF8001004984843049002A8FDF73E
:1051C0001DFD002008B070BD0120FBE738B5044686
:1051D000214890F82400C0B114B10220009001E0F1
:1051E000002000901C4A1268D17B1B4A526810783C
:1051F0006B460122FCF761FA10B14FF0FF3038BD69
:105200009DF800101448417423E01348807A10B9C7
:105210004FF0FF30F3E724B10F48407C08B1002085
:10522000EDE714B10120009001E0002000900A4A4F
:105230001268D17B084A526810786B460122FCF74D
:105240003CFA10B14FF0FF30D9E79DF8001002484A
:1052500041740020D3E70000140000202DE9F04144
:1052600006460F4601F090FC041E0D4618BF0120B3
:10527000284320F00040C0F17F6000F1E040C00F03
:105280000ED0301C18BF0120384320F00040C0F180
:105290007F6000F1E040C00F04BF0120FBF748FA37
:1052A00020462946BDE8F08110B586B004460121AC
:1052B00044F20400FCF788FA4FF40070ADF81400D3
:1052C00003208DF8160018208DF8170005A91C483A
:1052D000FBF755FB4FF48060ADF8140004208DF807
:1052E000170005A91648FBF74AFB25208DF800009A
:1052F00003208DF801008DF8020001208DF80300D5
:105300006846FCF70DFA01940020ADF80800ADF8EE
:105310000A00ADF80C00ADF810000C20ADF80E003E
:1053200001A90848FCF7FEFC012240F2255105487E
:10533000FCF7D2FC01210348FCF798FC06B010BD35
:10534000000801400038014030B595B0054613AB68
:1053500012AA09A9284600F039FA044614B12046D9
:1053600015B030BD0020149026E0224909689DF850
:10537000502001EBC20113AB11AA486801A900F04B
:1053800025FA04460CB12046EAE709A901A800F075
:10539000BBFC60B99DF844009DF84810884201DDCF
:1053A0000220DDE79DF85000124988750AE09DF85B
:1053B0005000401CC0B214900E48007D9DF8501063
:1053C0008842D2DC00BF0B48007D9DF85010884217
:1053D00001D10420C4E714A9284600F0D7FA0446F6
:1053E0000CB12046BCE79DF85000024948750020EA
:1053F000B6E70000C00000202DE9F0419AB09C48BB
:10540000847D007DA04202DC1AB0BDE8F08198499D
:10541000096801EBC40106AB07AA486808A900F0B7
:10542000D5F908A993A0FAF747FF002644E0904871
:10543000008B0121B1400840D8B122218FA0FAF79A
:105440003BFF304600F028FB894924314718394694
:105450008BA0FAF731FF222188A0FAF72DFF304602
:1054600000F01AFB82492431084410A941F82600B3
:1054700018E0304600F010FB7D492431085810A98F
:1054800041F826007A48C07D30B910A850F826109F
:105490007CA0FAF711FF05E010A850F826107AA0BA
:1054A000FAF70AFF9DF81C00401EB04202D078A017
:1054B000FAF702FF701CC6B29DF81C008642B6DBEC
:1054C00074A0FAF7F9FE00F039FB6948407D0B281B
:1054D0000DD2DFE800F0060D151E27323F4E5F7239
:1054E00087006349096851F834008047054690E019
:1054F0005F4A126852F8341010988847054688E0D1
:105500005B4B1B6853F83420DDE9100190470546DA
:105510007FE0574F3F6857F8343010A807C89847C6
:10552000054676E0DFF848C1DCF800C05CF834706E
:1055300010A80FC8B84705466BE01498DFF830C1D3
:105540000090DCF800C05CF8347010A80FC8B847B1
:1055500005465EE0DDE91401DFF814C1CDE9000184
:10556000DCF800C05CF8347010A80FC8B8470546D6
:105570004FE0DDE914121698DFF8F4C0CDE900120F
:105580000290DCF800C05CF8347010A80FC8B8476F
:1055900005463EE0DDE91423DDE91610DFF8D0C052
:1055A000CDE90023CDE90210DCF800C05CF83470CE
:1055B00010A80FC8B84705462BE0DDE91523DDE943
:1055C0001710CDE90123CDE903101498DFF8A0C02E
:1055D0000090DCF800C05CF8347010A80FC8B84721
:1055E000054616E0DDE91623DDE91810CDE90223B2
:1055F000CDE90410DDE91401DFF874C0CDE9000144
:10560000DCF800C05CF8347010A80FC8B847054635
:1056100000BF00BF00F050FA9DF8180001280CD11F
:105620001348C07D20B929461BA0FAF745FE07E0C4
:1056300029461BA0FAF740FE02E018A0FAF73CFE4C
:105640000B4890F8EC0088B10948D0F8F0000A2126
:10565000B0FBF1F201FB12070548D0F8F000B0FBF7
:10566000F1F83A46414611A0FAF726FE00BFCBE614
:10567000C00000200D0A25732800000025630000EB
:1056800025730000256C7500305825580000000077
:105690002C000000290000003D256C753B0D0A0020
:1056A0003D305825583B0D0A0000000046756E63DA
:1056B00074696F6E2052756E2054696D653A256469
:1056C0002E2531646D730D0A00000000F0B503460D
:1056D0001546002000220026002455E01F782C2FBC
:1056E00001D104B901221F78292F01D01F780FB9E9
:1056F00004B94AE0002E34D11F78302F02DB1F7826
:10570000392F11DD1F78612F02DB1F78662F0BDD2B
:105710001F78412F02DB1F78462F05DD1F78582F99
:1057200002D01F78782F0CD102B12EE01F78612FA4
:1057300003DB1F78203F0F7001E01F780F70491CBA
:105740001FE01F78222F04D102B11EE001260124A0
:1057500017E01F78202F14D01F782C2F11D0FF2690
:1057600013E01F78222F00D1002402B10DE044B1D4
:105770001F785C2F02D15B1C471CF8B21F780F709A
:10578000491C471CF8B25B1CA8E700BF00270F703C
:105790002E70F0BD10B50446002010700BE020788C
:1057A0000870641C491C1078401C107010789842D6
:1057B00001DB012010BD2078202802D020780028AD
:1057C000EDD10020087000BFF4E700002DE9FF4F85
:1057D00085B0804689460027002004900390012070
:1057E00002904FF0000B002544461DE02078202851
:1057F00016D005F07F00052812DA0DB945F08005B6
:1058000005F07F00042803D120782A2800D00EE07C
:10581000207805F07F010DF80100681CC5B202E098
:10582000852D00D103E0641C20780028DED100BF64
:105830008DB1002005F07F010DF8010051A16846EF
:1058400000F062FA18B900210898017002E0012105
:105850000898017000254FF0000A444614E0641CCB
:105860000AF1010000F0FF0A2078202802D02078F9
:105870002A2809D1204600F0D7F90646282E03D061
:105880002A2E01D0CDF810A02078282802D0207828
:105890000028E4D14446049810B10498401C044404
:1058A0004FF0000A002654E0207810B94FF0010AAA
:1058B00050E02078282803D116B9781CC7B213E02D
:1058C0002078292808D13EB917B1781EC7B201E067
:1058D0004FF0010A47B93DE02078222804D10EB9E3
:1058E000012000E00020064647B9207820282FD06C
:1058F000207889F8000009F1010929E020782C2896
:1059000004D101200290681CC5B214E02078202840
:1059100011D0207828280ED04DB9BBF1050F06DA3A
:1059200020780DF80B000BF1010000F0FF0B02983E
:10593000401CC0B20290012F0AD10298022807D160
:105940000298401CC0B202900398401CC0B2039061
:10595000641CA9E700BF0398012809D100200DF8B5
:105960000B0008A1684600F0CFF908B900200390A9
:10597000079903980870002089F80000504609B084
:10598000BDE8F08F766F6964000000002DE9F043F8
:10599000B5B005460F460024002604E000213D482E
:1059A0008155701CC6B20A2EF8DB06E06D1C287803
:1059B00018B9012035B0BDE8F08328782828F5D142
:1059C0006D1C61E034AA69462846FFF77FFE064653
:1059D00035449DF8D00020B1012827D0FF284CD1B4
:1059E00049E09DF8000000B333A9684600F027F9AC
:1059F00006460EB10220DDE7204600F04DF82549AD
:105A00000A31339A0A50A1F12400008B0121A140F0
:105A1000884320491A39088304211E480155601C17
:105A2000C4B20A2C01DD0320C4E726E0684600F07A
:105A300087F9401C00F0FF08204600F02DF81549BA
:105A40000A3100EB01094946684600F06EF9114839
:105A50001A38018B0120A040014388B20D491A3940
:105A600008830C4800F80480601CC4B20A2C01DDD5
:105A700003209FE701E002209CE700BF2878292847
:105A800001D0287800B900E09CE700BF3C700020FE
:105A900090E70000DA00002002460020002105E027
:105AA000044B5B5C0344D8B24B1CD9B29142F7DB88
:105AB00070470000DA00002010B501210D48FBF707
:105AC000EAFF012808D10C48D0F8F0004FF6FF712A
:105AD00008440949C1F8F0000648FBF7D9FF064918
